{
  "contractName": "WillCreator",
  "abi": [
    {
      "constant": true,
      "inputs": [
        {
          "name": "",
          "type": "address"
        }
      ],
      "name": "myWill",
      "outputs": [
        {
          "name": "value",
          "type": "uint256"
        },
        {
          "name": "timeToDeath",
          "type": "uint256"
        },
        {
          "name": "timeLastCheckedIn",
          "type": "uint256"
        },
        {
          "name": "child",
          "type": "address"
        },
        {
          "name": "isValid",
          "type": "bool"
        }
      ],
      "payable": false,
      "stateMutability": "view",
      "type": "function"
    },
    {
      "constant": true,
      "inputs": [
        {
          "name": "",
          "type": "address"
        }
      ],
      "name": "doesWillExist",
      "outputs": [
        {
          "name": "",
          "type": "bool"
        }
      ],
      "payable": false,
      "stateMutability": "view",
      "type": "function"
    },
    {
      "constant": true,
      "inputs": [
        {
          "name": "",
          "type": "address"
        }
      ],
      "name": "parent",
      "outputs": [
        {
          "name": "",
          "type": "address"
        }
      ],
      "payable": false,
      "stateMutability": "view",
      "type": "function"
    },
    {
      "inputs": [],
      "payable": false,
      "stateMutability": "nonpayable",
      "type": "constructor"
    },
    {
      "payable": true,
      "stateMutability": "payable",
      "type": "fallback"
    },
    {
      "constant": false,
      "inputs": [
        {
          "name": "_child",
          "type": "address"
        },
        {
          "name": "_time",
          "type": "uint256"
        }
      ],
      "name": "makeWill",
      "outputs": [],
      "payable": true,
      "stateMutability": "payable",
      "type": "function"
    },
    {
      "constant": false,
      "inputs": [],
      "name": "checkin",
      "outputs": [],
      "payable": false,
      "stateMutability": "nonpayable",
      "type": "function"
    },
    {
      "constant": true,
      "inputs": [
        {
          "name": "_a",
          "type": "address"
        }
      ],
      "name": "timeToDeath",
      "outputs": [
        {
          "name": "",
          "type": "uint256"
        }
      ],
      "payable": false,
      "stateMutability": "view",
      "type": "function"
    },
    {
      "constant": false,
      "inputs": [],
      "name": "releaseEth",
      "outputs": [
        {
          "name": "",
          "type": "bool"
        }
      ],
      "payable": false,
      "stateMutability": "nonpayable",
      "type": "function"
    },
    {
      "constant": true,
      "inputs": [],
      "name": "getParent",
      "outputs": [
        {
          "name": "",
          "type": "address"
        }
      ],
      "payable": false,
      "stateMutability": "view",
      "type": "function"
    },
    {
      "constant": true,
      "inputs": [
        {
          "name": "_a",
          "type": "address"
        }
      ],
      "name": "isWillValid",
      "outputs": [
        {
          "name": "",
          "type": "bool"
        }
      ],
      "payable": false,
      "stateMutability": "view",
      "type": "function"
    },
    {
      "constant": true,
      "inputs": [],
      "name": "doesMyWillExist",
      "outputs": [
        {
          "name": "",
          "type": "bool"
        }
      ],
      "payable": false,
      "stateMutability": "view",
      "type": "function"
    },
    {
      "constant": true,
      "inputs": [],
      "name": "getChild",
      "outputs": [
        {
          "name": "",
          "type": "address"
        }
      ],
      "payable": false,
      "stateMutability": "view",
      "type": "function"
    },
    {
      "constant": true,
      "inputs": [],
      "name": "getValue",
      "outputs": [
        {
          "name": "",
          "type": "uint256"
        }
      ],
      "payable": false,
      "stateMutability": "view",
      "type": "function"
    },
    {
      "constant": true,
      "inputs": [],
      "name": "getTimePeriod",
      "outputs": [
        {
          "name": "",
          "type": "uint256"
        }
      ],
      "payable": false,
      "stateMutability": "view",
      "type": "function"
    },
    {
      "constant": true,
      "inputs": [
        {
          "name": "_a",
          "type": "address"
        }
      ],
      "name": "getTimeLastCheckedIn",
      "outputs": [
        {
          "name": "",
          "type": "uint256"
        }
      ],
      "payable": false,
      "stateMutability": "view",
      "type": "function"
    },
    {
      "constant": false,
      "inputs": [
        {
          "name": "_newChild",
          "type": "address"
        }
      ],
      "name": "changeChild",
      "outputs": [
        {
          "name": "",
          "type": "bool"
        }
      ],
      "payable": false,
      "stateMutability": "nonpayable",
      "type": "function"
    },
    {
      "constant": false,
      "inputs": [
        {
          "name": "_time",
          "type": "uint256"
        }
      ],
      "name": "changeTimePeriod",
      "outputs": [
        {
          "name": "",
          "type": "bool"
        }
      ],
      "payable": false,
      "stateMutability": "nonpayable",
      "type": "function"
    },
    {
      "constant": false,
      "inputs": [
        {
          "name": "_val",
          "type": "uint256"
        }
      ],
      "name": "withdraw",
      "outputs": [
        {
          "name": "",
          "type": "bool"
        }
      ],
      "payable": false,
      "stateMutability": "nonpayable",
      "type": "function"
    },
    {
      "constant": false,
      "inputs": [],
      "name": "withdrawAll",
      "outputs": [
        {
          "name": "",
          "type": "bool"
        }
      ],
      "payable": false,
      "stateMutability": "nonpayable",
      "type": "function"
    },
    {
      "constant": false,
      "inputs": [],
      "name": "addToWill",
      "outputs": [
        {
          "name": "",
          "type": "bool"
        }
      ],
      "payable": true,
      "stateMutability": "payable",
      "type": "function"
    },
    {
      "constant": false,
      "inputs": [
        {
          "name": "_to",
          "type": "address"
        },
        {
          "name": "_amount",
          "type": "uint256"
        }
      ],
      "name": "transfer",
      "outputs": [
        {
          "name": "",
          "type": "bool"
        }
      ],
      "payable": false,
      "stateMutability": "nonpayable",
      "type": "function"
    },
    {
      "constant": false,
      "inputs": [],
      "name": "killWill",
      "outputs": [
        {
          "name": "",
          "type": "bool"
        }
      ],
      "payable": false,
      "stateMutability": "nonpayable",
      "type": "function"
    }
  ],
  "bytecode": "0x608060405234801561001057600080fd5b50336000806101000a81548173ffffffffffffffffffffffffffffffffffffffff021916908373ffffffffffffffffffffffffffffffffffffffff160217905550611e89806100606000396000f30060806040526004361061011d576000357c0100000000000000000000000000000000000000000000000000000000900463ffffffff1680630c41646b14610122578063209652551461017d57806328345e49146101a85780632a43f338146101ed5780632e1a7d4d146102445780636afb6771146102895780637617d5a3146102b857806380a6b3d1146102da57806380f7602114610309578063853828b61461036057806388400b031461038f5780638b4835591461043257806395fe36141461048d578063a9059cbb146104bc578063ac9460c014610521578063af76dd1b1461057c578063baeb0718146105a7578063c39e97d6146105be578063c919419714610615578063d3b9c7c614610655578063f1f9d8c9146106ac575b600080fd5b34801561012e57600080fd5b50610163600480360381019080803573ffffffffffffffffffffffffffffffffffffffff16906020019092919050505061072f565b604051808215151515815260200191505060405180910390f35b34801561018957600080fd5b50610192610788565b6040518082815260200191505060405180910390f35b3480156101b457600080fd5b506101d36004803603810190808035906020019092919050505061082a565b604051808215151515815260200191505060405180910390f35b3480156101f957600080fd5b506102026108d4565b604051808273ffffffffffffffffffffffffffffffffffffffff1673ffffffffffffffffffffffffffffffffffffffff16815260200191505060405180910390f35b34801561025057600080fd5b5061026f60048036038101908080359060200190929190505050610996565b604051808215151515815260200191505060405180910390f35b34801561029557600080fd5b5061029e610a01565b604051808215151515815260200191505060405180910390f35b6102c0610ee8565b604051808215151515815260200191505060405180910390f35b3480156102e657600080fd5b506102ef610fe4565b604051808215151515815260200191505060405180910390f35b34801561031557600080fd5b5061031e611038565b604051808273ffffffffffffffffffffffffffffffffffffffff1673ffffffffffffffffffffffffffffffffffffffff16815260200191505060405180910390f35b34801561036c57600080fd5b5061037561109f565b604051808215151515815260200191505060405180910390f35b34801561039b57600080fd5b506103d0600480360381019080803573ffffffffffffffffffffffffffffffffffffffff1690602001909291905050506111d6565b604051808681526020018581526020018481526020018373ffffffffffffffffffffffffffffffffffffffff1673ffffffffffffffffffffffffffffffffffffffff168152602001821515151581526020019550505050505060405180910390f35b34801561043e57600080fd5b50610473600480360381019080803573ffffffffffffffffffffffffffffffffffffffff169060200190929190505050611239565b604051808215151515815260200191505060405180910390f35b34801561049957600080fd5b506104a2611259565b604051808215151515815260200191505060405180910390f35b3480156104c857600080fd5b50610507600480360381019080803573ffffffffffffffffffffffffffffffffffffffff16906020019092919080359060200190929190505050611373565b604051808215151515815260200191505060405180910390f35b34801561052d57600080fd5b50610562600480360381019080803573ffffffffffffffffffffffffffffffffffffffff16906020019092919050505061150a565b604051808215151515815260200191505060405180910390f35b34801561058857600080fd5b506105916117e7565b6040518082815260200191505060405180910390f35b3480156105b357600080fd5b506105bc611889565b005b3480156105ca57600080fd5b506105ff600480360381019080803573ffffffffffffffffffffffffffffffffffffffff16906020019092919050505061192a565b6040518082815260200191505060405180910390f35b610653600480360381019080803573ffffffffffffffffffffffffffffffffffffffff16906020019092919080359060200190929190505050611a14565b005b34801561066157600080fd5b50610696600480360381019080803573ffffffffffffffffffffffffffffffffffffffff169060200190929190505050611da7565b6040518082815260200191505060405180910390f35b3480156106b857600080fd5b506106ed600480360381019080803573ffffffffffffffffffffffffffffffffffffffff169060200190929190505050611df3565b604051808273ffffffffffffffffffffffffffffffffffffffff1673ffffffffffffffffffffffffffffffffffffffff16815260200191505060405180910390f35b6000600160008373ffffffffffffffffffffffffffffffffffffffff1673ffffffffffffffffffffffffffffffffffffffff16815260200190815260200160002060030160149054906101000a900460ff169050919050565b6000600260003373ffffffffffffffffffffffffffffffffffffffff1673ffffffffffffffffffffffffffffffffffffffff16815260200190815260200160002060009054906101000a900460ff1615156107e257600080fd5b600160003373ffffffffffffffffffffffffffffffffffffffff1673ffffffffffffffffffffffffffffffffffffffff16815260200190815260200160002060000154905090565b6000600260003373ffffffffffffffffffffffffffffffffffffffff1673ffffffffffffffffffffffffffffffffffffffff16815260200190815260200160002060009054906101000a900460ff16151561088457600080fd5b81600160003373ffffffffffffffffffffffffffffffffffffffff1673ffffffffffffffffffffffffffffffffffffffff1681526020019081526020016000206001018190555060019050919050565b6000600260003373ffffffffffffffffffffffffffffffffffffffff1673ffffffffffffffffffffffffffffffffffffffff16815260200190815260200160002060009054906101000a900460ff16151561092e57600080fd5b600160003373ffffffffffffffffffffffffffffffffffffffff1673ffffffffffffffffffffffffffffffffffffffff16815260200190815260200160002060030160009054906101000a900473ffffffffffffffffffffffffffffffffffffffff16905090565b6000600260003373ffffffffffffffffffffffffffffffffffffffff1673ffffffffffffffffffffffffffffffffffffffff16815260200190815260200160002060009054906101000a900460ff1615156109f057600080fd5b6109fa3383611373565b9050919050565b6000806001151560026000600360003373ffffffffffffffffffffffffffffffffffffffff1673ffffffffffffffffffffffffffffffffffffffff16815260200190815260200160002060009054906101000a900473ffffffffffffffffffffffffffffffffffffffff1673ffffffffffffffffffffffffffffffffffffffff1673ffffffffffffffffffffffffffffffffffffffff16815260200190815260200160002060009054906101000a900460ff161515141515610ac257600080fd5b4260016000600360003373ffffffffffffffffffffffffffffffffffffffff1673ffffffffffffffffffffffffffffffffffffffff16815260200190815260200160002060009054906101000a900473ffffffffffffffffffffffffffffffffffffffff1673ffffffffffffffffffffffffffffffffffffffff1673ffffffffffffffffffffffffffffffffffffffff1681526020019081526020016000206001015460016000600360003373ffffffffffffffffffffffffffffffffffffffff1673ffffffffffffffffffffffffffffffffffffffff16815260200190815260200160002060009054906101000a900473ffffffffffffffffffffffffffffffffffffffff1673ffffffffffffffffffffffffffffffffffffffff1673ffffffffffffffffffffffffffffffffffffffff168152602001908152602001600020600201540111151515610c1557600080fd5b60016000600360003373ffffffffffffffffffffffffffffffffffffffff1673ffffffffffffffffffffffffffffffffffffffff16815260200190815260200160002060009054906101000a900473ffffffffffffffffffffffffffffffffffffffff1673ffffffffffffffffffffffffffffffffffffffff1673ffffffffffffffffffffffffffffffffffffffff168152602001908152602001600020600001549050600060016000600360003373ffffffffffffffffffffffffffffffffffffffff1673ffffffffffffffffffffffffffffffffffffffff16815260200190815260200160002060009054906101000a900473ffffffffffffffffffffffffffffffffffffffff1673ffffffffffffffffffffffffffffffffffffffff1673ffffffffffffffffffffffffffffffffffffffff16815260200190815260200160002060000181905550600060016000600360003373ffffffffffffffffffffffffffffffffffffffff1673ffffffffffffffffffffffffffffffffffffffff16815260200190815260200160002060009054906101000a900473ffffffffffffffffffffffffffffffffffffffff1673ffffffffffffffffffffffffffffffffffffffff1673ffffffffffffffffffffffffffffffffffffffff16815260200190815260200160002060030160146101000a81548160ff0219169083151502179055506000600360003373ffffffffffffffffffffffffffffffffffffffff1673ffffffffffffffffffffffffffffffffffffffff16815260200190815260200160002060006101000a81548173ffffffffffffffffffffffffffffffffffffffff021916908373ffffffffffffffffffffffffffffffffffffffff1602179055503373ffffffffffffffffffffffffffffffffffffffff166108fc829081150290604051600060405180830381858888f19350505050158015610edf573d6000803e3d6000fd5b50600191505090565b6000600260003373ffffffffffffffffffffffffffffffffffffffff1673ffffffffffffffffffffffffffffffffffffffff16815260200190815260200160002060009054906101000a900460ff161515610f4257600080fd5b610f9734600160003373ffffffffffffffffffffffffffffffffffffffff1673ffffffffffffffffffffffffffffffffffffffff16815260200190815260200160002060000154611e2690919063ffffffff16565b600160003373ffffffffffffffffffffffffffffffffffffffff1673ffffffffffffffffffffffffffffffffffffffff168152602001908152602001600020600001819055506001905090565b6000600260003373ffffffffffffffffffffffffffffffffffffffff1673ffffffffffffffffffffffffffffffffffffffff16815260200190815260200160002060009054906101000a900460ff16905090565b6000600360003373ffffffffffffffffffffffffffffffffffffffff1673ffffffffffffffffffffffffffffffffffffffff16815260200190815260200160002060009054906101000a900473ffffffffffffffffffffffffffffffffffffffff16905090565b600080600260003373ffffffffffffffffffffffffffffffffffffffff1673ffffffffffffffffffffffffffffffffffffffff16815260200190815260200160002060009054906101000a900460ff1615156110fa57600080fd5b600160003373ffffffffffffffffffffffffffffffffffffffff1673ffffffffffffffffffffffffffffffffffffffff1681526020019081526020016000206000015490506000600160003373ffffffffffffffffffffffffffffffffffffffff1673ffffffffffffffffffffffffffffffffffffffff168152602001908152602001600020600001819055503373ffffffffffffffffffffffffffffffffffffffff166108fc829081150290604051600060405180830381858888f193505050501580156111cd573d6000803e3d6000fd5b50600191505090565b60016020528060005260406000206000915090508060000154908060010154908060020154908060030160009054906101000a900473ffffffffffffffffffffffffffffffffffffffff16908060030160149054906101000a900460ff16905085565b60026020528060005260406000206000915054906101000a900460ff1681565b6000600260003373ffffffffffffffffffffffffffffffffffffffff1673ffffffffffffffffffffffffffffffffffffffff16815260200190815260200160002060009054906101000a900460ff1615156112b357600080fd5b6000600260003373ffffffffffffffffffffffffffffffffffffffff1673ffffffffffffffffffffffffffffffffffffffff16815260200190815260200160002060006101000a81548160ff0219169083151502179055506000600160003373ffffffffffffffffffffffffffffffffffffffff1673ffffffffffffffffffffffffffffffffffffffff16815260200190815260200160002060030160146101000a81548160ff02191690831515021790555061136e61109f565b905090565b6000600260003373ffffffffffffffffffffffffffffffffffffffff1673ffffffffffffffffffffffffffffffffffffffff16815260200190815260200160002060009054906101000a900460ff1615156113cd57600080fd5b81600160003373ffffffffffffffffffffffffffffffffffffffff1673ffffffffffffffffffffffffffffffffffffffff168152602001908152602001600020600001541015151561141e57600080fd5b61147382600160003373ffffffffffffffffffffffffffffffffffffffff1673ffffffffffffffffffffffffffffffffffffffff16815260200190815260200160002060000154611e4490919063ffffffff16565b600160003373ffffffffffffffffffffffffffffffffffffffff1673ffffffffffffffffffffffffffffffffffffffff168152602001908152602001600020600001819055508273ffffffffffffffffffffffffffffffffffffffff166108fc839081150290604051600060405180830381858888f193505050501580156114ff573d6000803e3d6000fd5b506001905092915050565b6000600260003373ffffffffffffffffffffffffffffffffffffffff1673ffffffffffffffffffffffffffffffffffffffff16815260200190815260200160002060009054906101000a900460ff16151561156457600080fd5b600073ffffffffffffffffffffffffffffffffffffffff16600360008473ffffffffffffffffffffffffffffffffffffffff1673ffffffffffffffffffffffffffffffffffffffff16815260200190815260200160002060009054906101000a900473ffffffffffffffffffffffffffffffffffffffff1673ffffffffffffffffffffffffffffffffffffffff161415156115fe57600080fd5b600060036000600160003373ffffffffffffffffffffffffffffffffffffffff1673ffffffffffffffffffffffffffffffffffffffff16815260200190815260200160002060030160009054906101000a900473ffffffffffffffffffffffffffffffffffffffff1673ffffffffffffffffffffffffffffffffffffffff1673ffffffffffffffffffffffffffffffffffffffff16815260200190815260200160002060006101000a81548173ffffffffffffffffffffffffffffffffffffffff021916908373ffffffffffffffffffffffffffffffffffffffff16021790555081600160003373ffffffffffffffffffffffffffffffffffffffff1673ffffffffffffffffffffffffffffffffffffffff16815260200190815260200160002060030160006101000a81548173ffffffffffffffffffffffffffffffffffffffff021916908373ffffffffffffffffffffffffffffffffffffffff16021790555033600360008473ffffffffffffffffffffffffffffffffffffffff1673ffffffffffffffffffffffffffffffffffffffff16815260200190815260200160002060006101000a81548173ffffffffffffffffffffffffffffffffffffffff021916908373ffffffffffffffffffffffffffffffffffffffff16021790555060019050919050565b6000600260003373ffffffffffffffffffffffffffffffffffffffff1673ffffffffffffffffffffffffffffffffffffffff16815260200190815260200160002060009054906101000a900460ff16151561184157600080fd5b600160003373ffffffffffffffffffffffffffffffffffffffff1673ffffffffffffffffffffffffffffffffffffffff16815260200190815260200160002060010154905090565b600260003373ffffffffffffffffffffffffffffffffffffffff1673ffffffffffffffffffffffffffffffffffffffff16815260200190815260200160002060009054906101000a900460ff1615156118e157600080fd5b42600160003373ffffffffffffffffffffffffffffffffffffffff1673ffffffffffffffffffffffffffffffffffffffff16815260200190815260200160002060020181905550565b6000600260008373ffffffffffffffffffffffffffffffffffffffff1673ffffffffffffffffffffffffffffffffffffffff16815260200190815260200160002060009054906101000a900460ff16151561198457600080fd5b42600160008473ffffffffffffffffffffffffffffffffffffffff1673ffffffffffffffffffffffffffffffffffffffff16815260200190815260200160002060010154600160008573ffffffffffffffffffffffffffffffffffffffff1673ffffffffffffffffffffffffffffffffffffffff1681526020019081526020016000206002015401039050919050565b600260003373ffffffffffffffffffffffffffffffffffffffff1673ffffffffffffffffffffffffffffffffffffffff16815260200190815260200160002060009054906101000a900460ff161580611aba5750600160003373ffffffffffffffffffffffffffffffffffffffff1673ffffffffffffffffffffffffffffffffffffffff16815260200190815260200160002060030160149054906101000a900460ff16155b1515611ac557600080fd5b6001600260003373ffffffffffffffffffffffffffffffffffffffff1673ffffffffffffffffffffffffffffffffffffffff16815260200190815260200160002060006101000a81548160ff02191690831515021790555034600160003373ffffffffffffffffffffffffffffffffffffffff1673ffffffffffffffffffffffffffffffffffffffff1681526020019081526020016000206000018190555080600160003373ffffffffffffffffffffffffffffffffffffffff1673ffffffffffffffffffffffffffffffffffffffff1681526020019081526020016000206001018190555042600160003373ffffffffffffffffffffffffffffffffffffffff1673ffffffffffffffffffffffffffffffffffffffff1681526020019081526020016000206002018190555081600160003373ffffffffffffffffffffffffffffffffffffffff1673ffffffffffffffffffffffffffffffffffffffff16815260200190815260200160002060030160006101000a81548173ffffffffffffffffffffffffffffffffffffffff021916908373ffffffffffffffffffffffffffffffffffffffff16021790555060018060003373ffffffffffffffffffffffffffffffffffffffff1673ffffffffffffffffffffffffffffffffffffffff16815260200190815260200160002060030160146101000a81548160ff0219169083151502179055506001600260003373ffffffffffffffffffffffffffffffffffffffff1673ffffffffffffffffffffffffffffffffffffffff16815260200190815260200160002060006101000a81548160ff02191690831515021790555033600360008473ffffffffffffffffffffffffffffffffffffffff1673ffffffffffffffffffffffffffffffffffffffff16815260200190815260200160002060006101000a81548173ffffffffffffffffffffffffffffffffffffffff021916908373ffffffffffffffffffffffffffffffffffffffff1602179055505050565b6000600160008373ffffffffffffffffffffffffffffffffffffffff1673ffffffffffffffffffffffffffffffffffffffff168152602001908152602001600020600201549050919050565b60036020528060005260406000206000915054906101000a900473ffffffffffffffffffffffffffffffffffffffff1681565b6000808284019050838110151515611e3a57fe5b8091505092915050565b6000828211151515611e5257fe5b8183039050929150505600a165627a7a72305820afccdaee188d193bbab921cdbf3576269ff53c2fc7bf9b4384caa93f30595f8c0029",
  "source": "import './Libraries/SafeMath.sol';\n\npragma solidity 0.4.24;\n\n/* WILL CREATION SMART CONTRACT */ \ncontract WillCreator {\n\tusing SafeMath for uint256;\n\n    address owner; \n\n    constructor() public {\n    \towner = msg.sender;\n    }\n\n    // for testing\n    //event ReleasedEth(address _child, address _parent, bool willExists);\n\n\tstruct will{\n\t\tuint value;\n\t\tuint timeToDeath;\n\t\tuint timeLastCheckedIn;\n\t\taddress child;\n\t\tbool isValid;\n\t}\n\t\n\tmapping (address => will) public myWill;\n\tmapping (address => bool) public doesWillExist;\n\tmapping (address => address) public parent;\n\t\n\t// fallback: return eth to msg.sender\n\tfunction () public payable {\n\t    revert();\n\t}\n\n\t// input: address the eth will be sent to after owner of will dies\n\t// uint time that the user wishes to be considered dead after no interaction\n\tfunction makeWill(address _child, uint _time) public payable {\n\t\trequire ( !doesWillExist[msg.sender] || !myWill[msg.sender].isValid );\n\t\tdoesWillExist[msg.sender] = true;\n\t\tmyWill[msg.sender].value = msg.value;\n\t\tmyWill[msg.sender].timeToDeath = _time;\n\t\tmyWill[msg.sender].timeLastCheckedIn = block.timestamp;\n\t\tmyWill[msg.sender].child = _child;\n\t\tmyWill[msg.sender].isValid = true;\n\n\t\tdoesWillExist[msg.sender] = true;\n\t\tparent[_child] = msg.sender;\n\t}\n\n\n\tmodifier myWillExists() {\n\t\trequire(doesWillExist[msg.sender]);\n\t\t_;\n\t}\n\n\tfunction checkin() public myWillExists() {\n\t\tmyWill[msg.sender].timeLastCheckedIn = block.timestamp;\t\t\t\n\t}\n\n\tfunction timeToDeath(address _a) public view returns (uint) {\n\t\trequire(doesWillExist[_a]);\n\t\treturn myWill[_a].timeLastCheckedIn + myWill[_a].timeToDeath - block.timestamp;\t\n\t}\n\n\t// if child of a parent who has died calls this function, send total eth in the will to them\n\t// if the current time is past the time of last check-in plus the user-set time until death \n\t// child must know the address of the parent\n\tfunction releaseEth() public returns (bool) {\n\t\t//emit ReleasedEth(msg.sender, parent[msg.sender], doesWillExist[parent[msg.sender]]);\n\t\trequire(doesWillExist[parent[msg.sender]] == true);\n\t\trequire(myWill[parent[msg.sender]].timeLastCheckedIn + myWill[parent[msg.sender]].timeToDeath <= block.timestamp);\n\n\t\tuint val = myWill[parent[msg.sender]].value;\n\t\tmyWill[parent[msg.sender]].value = 0;\n\t\tmyWill[parent[msg.sender]].isValid = false;\n\t\tparent[msg.sender] = address(0);\n\t\tmsg.sender.transfer(val);\t\n\t\treturn true;\n\t}\n\n\tfunction getParent() public view returns (address) {\n\t\treturn parent[msg.sender];\n\t}\n\n\tfunction isWillValid(address _a) public view returns (bool) {\n\t\treturn myWill[_a].isValid;\n\t}\n\n\tfunction doesMyWillExist() public view returns (bool) {\n\t\treturn doesWillExist[msg.sender]; \n\t}\n\n\tfunction getChild() public view myWillExists() returns (address) {\n\t\treturn myWill[msg.sender].child;\n\t}\n\n\tfunction getValue() public view myWillExists() returns (uint) {\n\t\treturn myWill[msg.sender].value;\n\t}\n\n\tfunction getTimePeriod() public view myWillExists() returns (uint) {\n\t\treturn myWill[msg.sender].timeToDeath;\n\t}\n\n\tfunction getTimeLastCheckedIn(address _a) public view returns (uint) {\n\t\treturn myWill[_a].timeLastCheckedIn; \n\t}\n\n\t// allows parent to change the child\n\t// child can now be assigned to another will\n\tfunction changeChild(address _newChild) public myWillExists() returns (bool) {\n\t\trequire(parent[_newChild] == address(0));\n\t\tparent[myWill[msg.sender].child] = address(0);\n\t\tmyWill[msg.sender].child = _newChild;\n\t\tparent[_newChild] = msg.sender;\n\t\treturn true;\n\t}\n\n\tfunction changeTimePeriod(uint _time) public myWillExists() returns (bool) {\n\t\tmyWill[msg.sender].timeToDeath = _time;\n\t\treturn true;\n\t}\n\n\t// withdraw eth back to original sending account\n\tfunction withdraw(uint _val) public myWillExists() returns (bool) {\n\t\treturn transfer(msg.sender, _val);\n\t}\n\t\n\t// withdraw all eth back to original sending account\t\n\tfunction withdrawAll() public myWillExists() returns (bool) {\n\t\tuint val = myWill[msg.sender].value;\n\t\tmyWill[msg.sender].value = 0;\n        msg.sender.transfer(val);\n        return true;\n\t}\n\n\t// add msg.value to the will value\n\tfunction addToWill() public payable myWillExists() returns (bool) {\n        myWill[msg.sender].value = myWill[msg.sender].value.add(msg.value);\n        return true;\n    }\n    \n    // transfer eth from contract to owner-specified address\n\tfunction transfer(address _to, uint _amount) public myWillExists() returns (bool) {\n\t\trequire (myWill[msg.sender].value >= _amount);\n\t\tmyWill[msg.sender].value = myWill[msg.sender].value.sub(_amount);\n\t   \t_to.transfer(_amount);\n\t   \treturn true;\n\t}\n\n\t// deletes will if it exists\n\t// returns all eth to creating account\n\t// child can now be attached to another will\n\tfunction killWill() public myWillExists() returns (bool) {\n\t\tdoesWillExist[msg.sender] = false;\n\t\tmyWill[msg.sender].isValid = false;\n\t\treturn withdrawAll();\n\t}\n}\n",
  "sourcePath": "/Users/qjermyn/Desktop/branch/cryptowill/will-contract/contracts/WillCreator.sol",
  "compiler": {
    "name": "solc",
    "version": "0.4.24+commit.e67f0147.Emscripten.clang"
  },
  "schemaVersion": "2.0.0",
  "updatedAt": "2018-06-05T01:21:50.691Z"
}