{
  "contractName": "WillCreator",
  "abi": [
    {
      "constant": true,
      "inputs": [
        {
          "name": "",
          "type": "address"
        }
      ],
      "name": "myWill",
      "outputs": [
        {
          "name": "value",
          "type": "uint256"
        },
        {
          "name": "timeToDeath",
          "type": "uint256"
        },
        {
          "name": "timeLastCheckedIn",
          "type": "uint256"
        },
        {
          "name": "child",
          "type": "address"
        },
        {
          "name": "isValid",
          "type": "bool"
        }
      ],
      "payable": false,
      "stateMutability": "view",
      "type": "function"
    },
    {
      "constant": true,
      "inputs": [
        {
          "name": "",
          "type": "address"
        }
      ],
      "name": "doesWillExist",
      "outputs": [
        {
          "name": "",
          "type": "bool"
        }
      ],
      "payable": false,
      "stateMutability": "view",
      "type": "function"
    },
    {
      "inputs": [],
      "payable": false,
      "stateMutability": "nonpayable",
      "type": "constructor"
    },
    {
      "payable": true,
      "stateMutability": "payable",
      "type": "fallback"
    },
    {
      "constant": false,
      "inputs": [
        {
          "name": "_child",
          "type": "address"
        },
        {
          "name": "_time",
          "type": "uint256"
        }
      ],
      "name": "makeWill",
      "outputs": [],
      "payable": true,
      "stateMutability": "payable",
      "type": "function"
    },
    {
      "constant": false,
      "inputs": [],
      "name": "checkin",
      "outputs": [],
      "payable": false,
      "stateMutability": "nonpayable",
      "type": "function"
    },
    {
      "constant": true,
      "inputs": [
        {
          "name": "_a",
          "type": "address"
        }
      ],
      "name": "timeToDeath",
      "outputs": [
        {
          "name": "",
          "type": "uint256"
        }
      ],
      "payable": false,
      "stateMutability": "view",
      "type": "function"
    },
    {
      "constant": false,
      "inputs": [
        {
          "name": "_parent",
          "type": "address"
        }
      ],
      "name": "releaseEth",
      "outputs": [
        {
          "name": "",
          "type": "bool"
        }
      ],
      "payable": false,
      "stateMutability": "nonpayable",
      "type": "function"
    },
    {
      "constant": true,
      "inputs": [],
      "name": "doesMyWillExist",
      "outputs": [
        {
          "name": "",
          "type": "bool"
        }
      ],
      "payable": false,
      "stateMutability": "view",
      "type": "function"
    },
    {
      "constant": true,
      "inputs": [],
      "name": "getChild",
      "outputs": [
        {
          "name": "",
          "type": "address"
        }
      ],
      "payable": false,
      "stateMutability": "view",
      "type": "function"
    },
    {
      "constant": true,
      "inputs": [],
      "name": "getValue",
      "outputs": [
        {
          "name": "",
          "type": "uint256"
        }
      ],
      "payable": false,
      "stateMutability": "view",
      "type": "function"
    },
    {
      "constant": true,
      "inputs": [],
      "name": "getTimePeriod",
      "outputs": [
        {
          "name": "",
          "type": "uint256"
        }
      ],
      "payable": false,
      "stateMutability": "view",
      "type": "function"
    },
    {
      "constant": true,
      "inputs": [
        {
          "name": "_a",
          "type": "address"
        }
      ],
      "name": "getTimeLastCheckedIn",
      "outputs": [
        {
          "name": "",
          "type": "uint256"
        }
      ],
      "payable": false,
      "stateMutability": "view",
      "type": "function"
    },
    {
      "constant": false,
      "inputs": [
        {
          "name": "_a",
          "type": "address"
        }
      ],
      "name": "changeChild",
      "outputs": [
        {
          "name": "",
          "type": "bool"
        }
      ],
      "payable": false,
      "stateMutability": "nonpayable",
      "type": "function"
    },
    {
      "constant": false,
      "inputs": [
        {
          "name": "_time",
          "type": "uint256"
        }
      ],
      "name": "changeTimePeriod",
      "outputs": [
        {
          "name": "",
          "type": "bool"
        }
      ],
      "payable": false,
      "stateMutability": "nonpayable",
      "type": "function"
    },
    {
      "constant": false,
      "inputs": [
        {
          "name": "_val",
          "type": "uint256"
        }
      ],
      "name": "withdraw",
      "outputs": [
        {
          "name": "",
          "type": "bool"
        }
      ],
      "payable": false,
      "stateMutability": "nonpayable",
      "type": "function"
    },
    {
      "constant": false,
      "inputs": [],
      "name": "withdrawAll",
      "outputs": [
        {
          "name": "",
          "type": "bool"
        }
      ],
      "payable": false,
      "stateMutability": "nonpayable",
      "type": "function"
    },
    {
      "constant": false,
      "inputs": [],
      "name": "addToWill",
      "outputs": [
        {
          "name": "",
          "type": "bool"
        }
      ],
      "payable": true,
      "stateMutability": "payable",
      "type": "function"
    },
    {
      "constant": false,
      "inputs": [
        {
          "name": "_to",
          "type": "address"
        },
        {
          "name": "_amount",
          "type": "uint256"
        }
      ],
      "name": "transfer",
      "outputs": [
        {
          "name": "",
          "type": "bool"
        }
      ],
      "payable": false,
      "stateMutability": "nonpayable",
      "type": "function"
    },
    {
      "constant": false,
      "inputs": [],
      "name": "killWill",
      "outputs": [
        {
          "name": "",
          "type": "bool"
        }
      ],
      "payable": false,
      "stateMutability": "nonpayable",
      "type": "function"
    }
  ],
  "bytecode": "0x608060405234801561001057600080fd5b50336000806101000a81548173ffffffffffffffffffffffffffffffffffffffff021916908373ffffffffffffffffffffffffffffffffffffffff160217905550611720806100606000396000f3006080604052600436106100fc576000357c0100000000000000000000000000000000000000000000000000000000900463ffffffff168063209652551461010157806328345e491461012c5780632a43f338146101715780632e1a7d4d146101c85780636ca708c41461020d5780637617d5a31461026857806380a6b3d11461028a578063853828b6146102b957806388400b03146102e85780638b4835591461038b57806395fe3614146103e6578063a9059cbb14610415578063ac9460c01461047a578063af76dd1b146104d5578063baeb071814610500578063c39e97d614610517578063c91941971461056e578063d3b9c7c6146105ae575b600080fd5b34801561010d57600080fd5b50610116610605565b6040518082815260200191505060405180910390f35b34801561013857600080fd5b50610157600480360381019080803590602001909291905050506106a7565b604051808215151515815260200191505060405180910390f35b34801561017d57600080fd5b50610186610751565b604051808273ffffffffffffffffffffffffffffffffffffffff1673ffffffffffffffffffffffffffffffffffffffff16815260200191505060405180910390f35b3480156101d457600080fd5b506101f360048036038101908080359060200190929190505050610813565b604051808215151515815260200191505060405180910390f35b34801561021957600080fd5b5061024e600480360381019080803573ffffffffffffffffffffffffffffffffffffffff16906020019092919050505061087e565b604051808215151515815260200191505060405180910390f35b610270610a90565b604051808215151515815260200191505060405180910390f35b34801561029657600080fd5b5061029f610b8c565b604051808215151515815260200191505060405180910390f35b3480156102c557600080fd5b506102ce610be0565b604051808215151515815260200191505060405180910390f35b3480156102f457600080fd5b50610329600480360381019080803573ffffffffffffffffffffffffffffffffffffffff169060200190929190505050610d17565b604051808681526020018581526020018481526020018373ffffffffffffffffffffffffffffffffffffffff1673ffffffffffffffffffffffffffffffffffffffff168152602001821515151581526020019550505050505060405180910390f35b34801561039757600080fd5b506103cc600480360381019080803573ffffffffffffffffffffffffffffffffffffffff169060200190929190505050610d7a565b604051808215151515815260200191505060405180910390f35b3480156103f257600080fd5b506103fb610d9a565b604051808215151515815260200191505060405180910390f35b34801561042157600080fd5b50610460600480360381019080803573ffffffffffffffffffffffffffffffffffffffff16906020019092919080359060200190929190505050610eb4565b604051808215151515815260200191505060405180910390f35b34801561048657600080fd5b506104bb600480360381019080803573ffffffffffffffffffffffffffffffffffffffff16906020019092919050505061104b565b604051808215151515815260200191505060405180910390f35b3480156104e157600080fd5b506104ea61112f565b6040518082815260200191505060405180910390f35b34801561050c57600080fd5b506105156111d1565b005b34801561052357600080fd5b50610558600480360381019080803573ffffffffffffffffffffffffffffffffffffffff169060200190929190505050611272565b6040518082815260200191505060405180910390f35b6105ac600480360381019080803573ffffffffffffffffffffffffffffffffffffffff1690602001909291908035906020019092919050505061135c565b005b3480156105ba57600080fd5b506105ef600480360381019080803573ffffffffffffffffffffffffffffffffffffffff169060200190929190505050611671565b6040518082815260200191505060405180910390f35b6000600260003373ffffffffffffffffffffffffffffffffffffffff1673ffffffffffffffffffffffffffffffffffffffff16815260200190815260200160002060009054906101000a900460ff16151561065f57600080fd5b600160003373ffffffffffffffffffffffffffffffffffffffff1673ffffffffffffffffffffffffffffffffffffffff16815260200190815260200160002060000154905090565b6000600260003373ffffffffffffffffffffffffffffffffffffffff1673ffffffffffffffffffffffffffffffffffffffff16815260200190815260200160002060009054906101000a900460ff16151561070157600080fd5b81600160003373ffffffffffffffffffffffffffffffffffffffff1673ffffffffffffffffffffffffffffffffffffffff1681526020019081526020016000206001018190555060019050919050565b6000600260003373ffffffffffffffffffffffffffffffffffffffff1673ffffffffffffffffffffffffffffffffffffffff16815260200190815260200160002060009054906101000a900460ff1615156107ab57600080fd5b600160003373ffffffffffffffffffffffffffffffffffffffff1673ffffffffffffffffffffffffffffffffffffffff16815260200190815260200160002060030160009054906101000a900473ffffffffffffffffffffffffffffffffffffffff16905090565b6000600260003373ffffffffffffffffffffffffffffffffffffffff1673ffffffffffffffffffffffffffffffffffffffff16815260200190815260200160002060009054906101000a900460ff16151561086d57600080fd5b6108773383610eb4565b9050919050565b6000803373ffffffffffffffffffffffffffffffffffffffff16600160008573ffffffffffffffffffffffffffffffffffffffff1673ffffffffffffffffffffffffffffffffffffffff16815260200190815260200160002060030160009054906101000a900473ffffffffffffffffffffffffffffffffffffffff1673ffffffffffffffffffffffffffffffffffffffff1614151561091d57600080fd5b42600160008573ffffffffffffffffffffffffffffffffffffffff1673ffffffffffffffffffffffffffffffffffffffff16815260200190815260200160002060010154600160008673ffffffffffffffffffffffffffffffffffffffff1673ffffffffffffffffffffffffffffffffffffffff1681526020019081526020016000206002015401111515156109b257600080fd5b600160008473ffffffffffffffffffffffffffffffffffffffff1673ffffffffffffffffffffffffffffffffffffffff1681526020019081526020016000206000015490506000600160008573ffffffffffffffffffffffffffffffffffffffff1673ffffffffffffffffffffffffffffffffffffffff168152602001908152602001600020600001819055503373ffffffffffffffffffffffffffffffffffffffff166108fc829081150290604051600060405180830381858888f19350505050158015610a85573d6000803e3d6000fd5b506001915050919050565b6000600260003373ffffffffffffffffffffffffffffffffffffffff1673ffffffffffffffffffffffffffffffffffffffff16815260200190815260200160002060009054906101000a900460ff161515610aea57600080fd5b610b3f34600160003373ffffffffffffffffffffffffffffffffffffffff1673ffffffffffffffffffffffffffffffffffffffff168152602001908152602001600020600001546116bd90919063ffffffff16565b600160003373ffffffffffffffffffffffffffffffffffffffff1673ffffffffffffffffffffffffffffffffffffffff168152602001908152602001600020600001819055506001905090565b6000600260003373ffffffffffffffffffffffffffffffffffffffff1673ffffffffffffffffffffffffffffffffffffffff16815260200190815260200160002060009054906101000a900460ff16905090565b600080600260003373ffffffffffffffffffffffffffffffffffffffff1673ffffffffffffffffffffffffffffffffffffffff16815260200190815260200160002060009054906101000a900460ff161515610c3b57600080fd5b600160003373ffffffffffffffffffffffffffffffffffffffff1673ffffffffffffffffffffffffffffffffffffffff1681526020019081526020016000206000015490506000600160003373ffffffffffffffffffffffffffffffffffffffff1673ffffffffffffffffffffffffffffffffffffffff168152602001908152602001600020600001819055503373ffffffffffffffffffffffffffffffffffffffff166108fc829081150290604051600060405180830381858888f19350505050158015610d0e573d6000803e3d6000fd5b50600191505090565b60016020528060005260406000206000915090508060000154908060010154908060020154908060030160009054906101000a900473ffffffffffffffffffffffffffffffffffffffff16908060030160149054906101000a900460ff16905085565b60026020528060005260406000206000915054906101000a900460ff1681565b6000600260003373ffffffffffffffffffffffffffffffffffffffff1673ffffffffffffffffffffffffffffffffffffffff16815260200190815260200160002060009054906101000a900460ff161515610df457600080fd5b6000600260003373ffffffffffffffffffffffffffffffffffffffff1673ffffffffffffffffffffffffffffffffffffffff16815260200190815260200160002060006101000a81548160ff0219169083151502179055506000600160003373ffffffffffffffffffffffffffffffffffffffff1673ffffffffffffffffffffffffffffffffffffffff16815260200190815260200160002060030160146101000a81548160ff021916908315150217905550610eaf610be0565b905090565b6000600260003373ffffffffffffffffffffffffffffffffffffffff1673ffffffffffffffffffffffffffffffffffffffff16815260200190815260200160002060009054906101000a900460ff161515610f0e57600080fd5b81600160003373ffffffffffffffffffffffffffffffffffffffff1673ffffffffffffffffffffffffffffffffffffffff1681526020019081526020016000206000015410151515610f5f57600080fd5b610fb482600160003373ffffffffffffffffffffffffffffffffffffffff1673ffffffffffffffffffffffffffffffffffffffff168152602001908152602001600020600001546116db90919063ffffffff16565b600160003373ffffffffffffffffffffffffffffffffffffffff1673ffffffffffffffffffffffffffffffffffffffff168152602001908152602001600020600001819055508273ffffffffffffffffffffffffffffffffffffffff166108fc839081150290604051600060405180830381858888f19350505050158015611040573d6000803e3d6000fd5b506001905092915050565b6000600260003373ffffffffffffffffffffffffffffffffffffffff1673ffffffffffffffffffffffffffffffffffffffff16815260200190815260200160002060009054906101000a900460ff1615156110a557600080fd5b81600160003373ffffffffffffffffffffffffffffffffffffffff1673ffffffffffffffffffffffffffffffffffffffff16815260200190815260200160002060030160006101000a81548173ffffffffffffffffffffffffffffffffffffffff021916908373ffffffffffffffffffffffffffffffffffffffff16021790555060019050919050565b6000600260003373ffffffffffffffffffffffffffffffffffffffff1673ffffffffffffffffffffffffffffffffffffffff16815260200190815260200160002060009054906101000a900460ff16151561118957600080fd5b600160003373ffffffffffffffffffffffffffffffffffffffff1673ffffffffffffffffffffffffffffffffffffffff16815260200190815260200160002060010154905090565b600260003373ffffffffffffffffffffffffffffffffffffffff1673ffffffffffffffffffffffffffffffffffffffff16815260200190815260200160002060009054906101000a900460ff16151561122957600080fd5b42600160003373ffffffffffffffffffffffffffffffffffffffff1673ffffffffffffffffffffffffffffffffffffffff16815260200190815260200160002060020181905550565b6000600260008373ffffffffffffffffffffffffffffffffffffffff1673ffffffffffffffffffffffffffffffffffffffff16815260200190815260200160002060009054906101000a900460ff1615156112cc57600080fd5b42600160008473ffffffffffffffffffffffffffffffffffffffff1673ffffffffffffffffffffffffffffffffffffffff16815260200190815260200160002060010154600160008573ffffffffffffffffffffffffffffffffffffffff1673ffffffffffffffffffffffffffffffffffffffff1681526020019081526020016000206002015401039050919050565b600260003373ffffffffffffffffffffffffffffffffffffffff1673ffffffffffffffffffffffffffffffffffffffff16815260200190815260200160002060009054906101000a900460ff1615806114025750600160003373ffffffffffffffffffffffffffffffffffffffff1673ffffffffffffffffffffffffffffffffffffffff16815260200190815260200160002060030160149054906101000a900460ff16155b151561140d57600080fd5b6001600260003373ffffffffffffffffffffffffffffffffffffffff1673ffffffffffffffffffffffffffffffffffffffff16815260200190815260200160002060006101000a81548160ff02191690831515021790555034600160003373ffffffffffffffffffffffffffffffffffffffff1673ffffffffffffffffffffffffffffffffffffffff1681526020019081526020016000206000018190555080600160003373ffffffffffffffffffffffffffffffffffffffff1673ffffffffffffffffffffffffffffffffffffffff1681526020019081526020016000206001018190555042600160003373ffffffffffffffffffffffffffffffffffffffff1673ffffffffffffffffffffffffffffffffffffffff1681526020019081526020016000206002018190555081600160003373ffffffffffffffffffffffffffffffffffffffff1673ffffffffffffffffffffffffffffffffffffffff16815260200190815260200160002060030160006101000a81548173ffffffffffffffffffffffffffffffffffffffff021916908373ffffffffffffffffffffffffffffffffffffffff16021790555060018060003373ffffffffffffffffffffffffffffffffffffffff1673ffffffffffffffffffffffffffffffffffffffff16815260200190815260200160002060030160146101000a81548160ff0219169083151502179055506001600260003373ffffffffffffffffffffffffffffffffffffffff1673ffffffffffffffffffffffffffffffffffffffff16815260200190815260200160002060006101000a81548160ff0219169083151502179055505050565b6000600160008373ffffffffffffffffffffffffffffffffffffffff1673ffffffffffffffffffffffffffffffffffffffff168152602001908152602001600020600201549050919050565b60008082840190508381101515156116d157fe5b8091505092915050565b60008282111515156116e957fe5b8183039050929150505600a165627a7a723058209f15c800323aadaae2437a642ca5da7213b44a0145b5b1539c92a870dfb6ede50029",
  "source": "import './Libraries/SafeMath.sol';\n\npragma solidity 0.4.23;\n\n/* WILL CREATION SMART CONTRACT */\ncontract WillCreator {\n\tusing SafeMath for uint256;\n\n    address owner; \n\n    constructor() public {\n    \towner = msg.sender;\n    }\n\n\tstruct will{\n\t\tuint value;\n\t\tuint timeToDeath;\n\t\tuint timeLastCheckedIn;\n\t\taddress child;\n\t\tbool isValid;\n\t}\n\t\n\tmapping (address => will) public myWill;\n\tmapping (address => bool) public doesWillExist;\n\t\n\t// fallback: return eth to msg.sender\n\tfunction () public payable {\n\t    revert();\n\t}\n\n\t// input: address the eth will be sent to after owner of will dies\n\t// uint time that the user wishes to be considered dead after no interaction\n\tfunction makeWill(address _child, uint _time) public payable {\n\t\trequire ( !doesWillExist[msg.sender] || !myWill[msg.sender].isValid );\n\t\tdoesWillExist[msg.sender] = true;\n\t\tmyWill[msg.sender].value = msg.value;\n\t\tmyWill[msg.sender].timeToDeath = _time;\n\t\tmyWill[msg.sender].timeLastCheckedIn = block.timestamp;\n\t\tmyWill[msg.sender].child = _child;\n\t\tmyWill[msg.sender].isValid = true;\n\n\t\tdoesWillExist[msg.sender] = true;\n\t}\n\n\n\tmodifier myWillExists() {\n\t\trequire(doesWillExist[msg.sender]);\n\t\t_;\n\t}\n\n\tfunction checkin() public myWillExists() {\n\t\tmyWill[msg.sender].timeLastCheckedIn = block.timestamp;\t\t\t\n\t}\n\n\tfunction timeToDeath(address _a) public view returns (uint) {\n\t\trequire(doesWillExist[_a]);\n\t\treturn myWill[_a].timeLastCheckedIn + myWill[_a].timeToDeath - block.timestamp;\t\n\t}\n\n\t// if child of a parent who has died calls this function, send total eth in the will to them\n\t// if the current time is past the time of last check-in plus the user-set time until death \n\t// child must know the address of the parent\n\tfunction releaseEth(address _parent) public returns (bool) {\n\t\trequire (myWill[_parent].child == msg.sender);\n\t\trequire (myWill[_parent].timeLastCheckedIn + myWill[_parent].timeToDeath <= block.timestamp);\n\n\t\tuint val = myWill[_parent].value;\n\t\tmyWill[_parent].value = 0;\n\t\tmsg.sender.transfer(val);\t\n\t\treturn true;\n\t}\n\n\tfunction doesMyWillExist() public view returns (bool) {\n\t\treturn doesWillExist[msg.sender]; \n\t}\n\n\tfunction getChild() public view myWillExists() returns (address) {\n\t\treturn myWill[msg.sender].child;\n\t}\n\n\tfunction getValue() public view myWillExists() returns (uint) {\n\t\treturn myWill[msg.sender].value;\n\t}\n\n\tfunction getTimePeriod() public view myWillExists() returns (uint) {\n\t\treturn myWill[msg.sender].timeToDeath;\n\t}\n\n\tfunction getTimeLastCheckedIn(address _a) public view returns (uint) {\n\t\treturn myWill[_a].timeLastCheckedIn; \n\t}\n\n\t// allows parent to change the child\n\t// child can now be assigned to another will\n\tfunction changeChild(address _a) public myWillExists() returns (bool) {\n\t\tmyWill[msg.sender].child = _a;\n\t\treturn true;\n\t}\n\n\tfunction changeTimePeriod(uint _time) public myWillExists() returns (bool) {\n\t\tmyWill[msg.sender].timeToDeath = _time;\n\t\treturn true;\n\t}\n\n\t// withdraw eth back to original sending account\n\tfunction withdraw(uint _val) public myWillExists() returns (bool) {\n\t\treturn transfer(msg.sender, _val);\n\t}\n\t\n\t// withdraw all eth back to original sending account\t\n\tfunction withdrawAll() public myWillExists() returns (bool) {\n\t\tuint val = myWill[msg.sender].value;\n\t\tmyWill[msg.sender].value = 0;\n        msg.sender.transfer(val);\n        return true;\n\t}\n\n\t// add msg.value to the will value\n\tfunction addToWill() public payable myWillExists() returns (bool) {\n        myWill[msg.sender].value = myWill[msg.sender].value.add(msg.value);\n        return true;\n    }\n    \n    // transfer eth from contract to owner-specified address\n\tfunction transfer(address _to, uint _amount) public myWillExists() returns (bool) {\n\t\trequire (myWill[msg.sender].value >= _amount);\n\t\tmyWill[msg.sender].value = myWill[msg.sender].value.sub(_amount);\n\t   \t_to.transfer(_amount);\n\t   \treturn true;\n\t}\n\n\t// deletes will if it exists\n\t// returns all eth to creating account\n\t// child can now be attached to another will\n\tfunction killWill() public myWillExists() returns (bool) {\n\t\tdoesWillExist[msg.sender] = false;\n\t\tmyWill[msg.sender].isValid = false;\n\t\treturn withdrawAll();\n\t}\n}\n",
  "sourcePath": "/home/elizabeth/Documents/lasting-legacy/will-contract/contracts/WillCreator.sol",
  "compiler": {
    "name": "solc",
    "version": "0.4.23+commit.124ca40d.Emscripten.clang"
  },
  "schemaVersion": "2.0.0",
  "updatedAt": "2018-05-15T18:20:41.294Z"
}