{
  "contractName": "WillCreator",
  "abi": [
    {
      "payable": true,
      "stateMutability": "payable",
      "type": "fallback"
    },
    {
      "constant": true,
      "inputs": [],
      "name": "getBalance",
      "outputs": [
        {
          "name": "",
          "type": "uint256"
        }
      ],
      "payable": false,
      "stateMutability": "view",
      "type": "function"
    },
    {
      "constant": false,
      "inputs": [
        {
          "name": "c",
          "type": "address"
        },
        {
          "name": "time",
          "type": "uint256"
        }
      ],
      "name": "makeWill",
      "outputs": [],
      "payable": true,
      "stateMutability": "payable",
      "type": "function"
    },
    {
      "constant": false,
      "inputs": [],
      "name": "checkin",
      "outputs": [],
      "payable": false,
      "stateMutability": "nonpayable",
      "type": "function"
    },
    {
      "constant": true,
      "inputs": [
        {
          "name": "a",
          "type": "address"
        }
      ],
      "name": "timeToDeath",
      "outputs": [
        {
          "name": "",
          "type": "uint256"
        }
      ],
      "payable": false,
      "stateMutability": "view",
      "type": "function"
    },
    {
      "constant": false,
      "inputs": [],
      "name": "releaseEth",
      "outputs": [],
      "payable": false,
      "stateMutability": "nonpayable",
      "type": "function"
    },
    {
      "constant": true,
      "inputs": [],
      "name": "doesMyWillExist",
      "outputs": [
        {
          "name": "",
          "type": "bool"
        }
      ],
      "payable": false,
      "stateMutability": "view",
      "type": "function"
    },
    {
      "constant": true,
      "inputs": [],
      "name": "getChild",
      "outputs": [
        {
          "name": "",
          "type": "address"
        }
      ],
      "payable": false,
      "stateMutability": "view",
      "type": "function"
    },
    {
      "constant": true,
      "inputs": [],
      "name": "amIChild",
      "outputs": [
        {
          "name": "",
          "type": "bool"
        }
      ],
      "payable": false,
      "stateMutability": "view",
      "type": "function"
    },
    {
      "constant": false,
      "inputs": [
        {
          "name": "a",
          "type": "address"
        }
      ],
      "name": "changeChild",
      "outputs": [],
      "payable": false,
      "stateMutability": "nonpayable",
      "type": "function"
    },
    {
      "constant": false,
      "inputs": [
        {
          "name": "a",
          "type": "uint256"
        }
      ],
      "name": "withdraw",
      "outputs": [],
      "payable": false,
      "stateMutability": "nonpayable",
      "type": "function"
    },
    {
      "constant": false,
      "inputs": [],
      "name": "withdrawAll",
      "outputs": [],
      "payable": false,
      "stateMutability": "nonpayable",
      "type": "function"
    },
    {
      "constant": false,
      "inputs": [],
      "name": "addToWill",
      "outputs": [],
      "payable": true,
      "stateMutability": "payable",
      "type": "function"
    },
    {
      "constant": false,
      "inputs": [
        {
          "name": "receiver",
          "type": "address"
        },
        {
          "name": "amount",
          "type": "uint256"
        }
      ],
      "name": "transferEth",
      "outputs": [],
      "payable": false,
      "stateMutability": "nonpayable",
      "type": "function"
    },
    {
      "constant": false,
      "inputs": [],
      "name": "killWill",
      "outputs": [],
      "payable": false,
      "stateMutability": "nonpayable",
      "type": "function"
    },
    {
      "constant": true,
      "inputs": [],
      "name": "getWillInfo",
      "outputs": [
        {
          "name": "",
          "type": "uint256"
        },
        {
          "name": "",
          "type": "uint256"
        },
        {
          "name": "",
          "type": "uint256"
        },
        {
          "name": "",
          "type": "address"
        }
      ],
      "payable": false,
      "stateMutability": "view",
      "type": "function"
    }
  ],
  "bytecode": "0x6080604052306000806101000a81548173ffffffffffffffffffffffffffffffffffffffff021916908373ffffffffffffffffffffffffffffffffffffffff16021790555034801561005057600080fd5b506116eb806100606000396000f3006080604052600436106100db576000357c0100000000000000000000000000000000000000000000000000000000900463ffffffff16806312065fe0146100e05780632a43f3381461010b5780632e1a7d4d146101625780636afb67711461018f5780636ea6437d146101a65780637617d5a3146101d557806380a6b3d1146101df578063853828b61461020e57806395fe361414610225578063ac9460c01461023c578063baeb07181461027f578063c39e97d614610296578063c9194197146102ed578063e9bb84c21461032d578063ed79bf431461037a575b600080fd5b3480156100ec57600080fd5b506100f56103e6565b6040518082815260200191505060405180910390f35b34801561011757600080fd5b50610120610426565b604051808273ffffffffffffffffffffffffffffffffffffffff1673ffffffffffffffffffffffffffffffffffffffff16815260200191505060405180910390f35b34801561016e57600080fd5b5061018d600480360381019080803590602001909291905050506104e8565b005b34801561019b57600080fd5b506101a461054d565b005b3480156101b257600080fd5b506101bb610774565b604051808215151515815260200191505060405180910390f35b6101dd6107c8565b005b3480156101eb57600080fd5b506101f46108ad565b604051808215151515815260200191505060405180910390f35b34801561021a57600080fd5b50610223610901565b005b34801561023157600080fd5b5061023a610a2c565b005b34801561024857600080fd5b5061027d600480360381019080803573ffffffffffffffffffffffffffffffffffffffff169060200190929190505050610bfb565b005b34801561028b57600080fd5b50610294610ddb565b005b3480156102a257600080fd5b506102d7600480360381019080803573ffffffffffffffffffffffffffffffffffffffff169060200190929190505050610e7c565b6040518082815260200191505060405180910390f35b61032b600480360381019080803573ffffffffffffffffffffffffffffffffffffffff16906020019092919080359060200190929190505050610f66565b005b34801561033957600080fd5b50610378600480360381019080803573ffffffffffffffffffffffffffffffffffffffff1690602001909291908035906020019092919050505061145c565b005b34801561038657600080fd5b5061038f6115db565b604051808581526020018481526020018381526020018273ffffffffffffffffffffffffffffffffffffffff1673ffffffffffffffffffffffffffffffffffffffff16815260200194505050505060405180910390f35b60008060009054906101000a900473ffffffffffffffffffffffffffffffffffffffff1673ffffffffffffffffffffffffffffffffffffffff1631905090565b6000600260003373ffffffffffffffffffffffffffffffffffffffff1673ffffffffffffffffffffffffffffffffffffffff16815260200190815260200160002060009054906101000a900460ff16151561048057600080fd5b600160003373ffffffffffffffffffffffffffffffffffffffff1673ffffffffffffffffffffffffffffffffffffffff16815260200190815260200160002060030160009054906101000a900473ffffffffffffffffffffffffffffffffffffffff16905090565b600260003373ffffffffffffffffffffffffffffffffffffffff1673ffffffffffffffffffffffffffffffffffffffff16815260200190815260200160002060009054906101000a900460ff16151561054057600080fd5b61054a338261145c565b50565b600460003373ffffffffffffffffffffffffffffffffffffffff1673ffffffffffffffffffffffffffffffffffffffff16815260200190815260200160002060009054906101000a900460ff16801561062b575042600360003373ffffffffffffffffffffffffffffffffffffffff1673ffffffffffffffffffffffffffffffffffffffff16815260200190815260200160002060010154600360003373ffffffffffffffffffffffffffffffffffffffff1673ffffffffffffffffffffffffffffffffffffffff1681526020019081526020016000206002015401105b151561063657600080fd5b3373ffffffffffffffffffffffffffffffffffffffff166108fc600360003373ffffffffffffffffffffffffffffffffffffffff1673ffffffffffffffffffffffffffffffffffffffff168152602001908152602001600020600001549081150290604051600060405180830381858888f193505050501580156106be573d6000803e3d6000fd5b506000600460003373ffffffffffffffffffffffffffffffffffffffff1673ffffffffffffffffffffffffffffffffffffffff16815260200190815260200160002060006101000a81548160ff0219169083151502179055506000600360003373ffffffffffffffffffffffffffffffffffffffff1673ffffffffffffffffffffffffffffffffffffffff16815260200190815260200160002060030160146101000a81548160ff021916908315150217905550565b6000600460003373ffffffffffffffffffffffffffffffffffffffff1673ffffffffffffffffffffffffffffffffffffffff16815260200190815260200160002060009054906101000a900460ff16905090565b600260003373ffffffffffffffffffffffffffffffffffffffff1673ffffffffffffffffffffffffffffffffffffffff16815260200190815260200160002060009054906101000a900460ff16151561082057600080fd5b34600160003373ffffffffffffffffffffffffffffffffffffffff1673ffffffffffffffffffffffffffffffffffffffff1681526020019081526020016000206000015401600160003373ffffffffffffffffffffffffffffffffffffffff1673ffffffffffffffffffffffffffffffffffffffff16815260200190815260200160002060000181905550565b6000600260003373ffffffffffffffffffffffffffffffffffffffff1673ffffffffffffffffffffffffffffffffffffffff16815260200190815260200160002060009054906101000a900460ff16905090565b600260003373ffffffffffffffffffffffffffffffffffffffff1673ffffffffffffffffffffffffffffffffffffffff16815260200190815260200160002060009054906101000a900460ff16151561095957600080fd5b3373ffffffffffffffffffffffffffffffffffffffff166108fc600160003373ffffffffffffffffffffffffffffffffffffffff1673ffffffffffffffffffffffffffffffffffffffff168152602001908152602001600020600001549081150290604051600060405180830381858888f193505050501580156109e1573d6000803e3d6000fd5b506000600160003373ffffffffffffffffffffffffffffffffffffffff1673ffffffffffffffffffffffffffffffffffffffff16815260200190815260200160002060000181905550565b600260003373ffffffffffffffffffffffffffffffffffffffff1673ffffffffffffffffffffffffffffffffffffffff16815260200190815260200160002060009054906101000a900460ff161515610a8457600080fd5b6000600260003373ffffffffffffffffffffffffffffffffffffffff1673ffffffffffffffffffffffffffffffffffffffff16815260200190815260200160002060006101000a81548160ff0219169083151502179055506000600160003373ffffffffffffffffffffffffffffffffffffffff1673ffffffffffffffffffffffffffffffffffffffff16815260200190815260200160002060030160146101000a81548160ff021916908315150217905550610b3f610901565b600060046000600160003373ffffffffffffffffffffffffffffffffffffffff1673ffffffffffffffffffffffffffffffffffffffff16815260200190815260200160002060030160009054906101000a900473ffffffffffffffffffffffffffffffffffffffff1673ffffffffffffffffffffffffffffffffffffffff1673ffffffffffffffffffffffffffffffffffffffff16815260200190815260200160002060006101000a81548160ff021916908315150217905550565b600460003373ffffffffffffffffffffffffffffffffffffffff1673ffffffffffffffffffffffffffffffffffffffff16815260200190815260200160002060009054906101000a900460ff1680610c9c5750600260003373ffffffffffffffffffffffffffffffffffffffff1673ffffffffffffffffffffffffffffffffffffffff16815260200190815260200160002060009054906101000a900460ff165b1515610ca757600080fd5b80600360003373ffffffffffffffffffffffffffffffffffffffff1673ffffffffffffffffffffffffffffffffffffffff16815260200190815260200160002060030160006101000a81548173ffffffffffffffffffffffffffffffffffffffff021916908373ffffffffffffffffffffffffffffffffffffffff1602179055506001600460008373ffffffffffffffffffffffffffffffffffffffff1673ffffffffffffffffffffffffffffffffffffffff16815260200190815260200160002060006101000a81548160ff0219169083151502179055506000600460003373ffffffffffffffffffffffffffffffffffffffff1673ffffffffffffffffffffffffffffffffffffffff16815260200190815260200160002060006101000a81548160ff02191690831515021790555050565b600260003373ffffffffffffffffffffffffffffffffffffffff1673ffffffffffffffffffffffffffffffffffffffff16815260200190815260200160002060009054906101000a900460ff161515610e3357600080fd5b42600160003373ffffffffffffffffffffffffffffffffffffffff1673ffffffffffffffffffffffffffffffffffffffff16815260200190815260200160002060020181905550565b6000600260008373ffffffffffffffffffffffffffffffffffffffff1673ffffffffffffffffffffffffffffffffffffffff16815260200190815260200160002060009054906101000a900460ff161515610ed657600080fd5b42600160008473ffffffffffffffffffffffffffffffffffffffff1673ffffffffffffffffffffffffffffffffffffffff16815260200190815260200160002060010154600160008573ffffffffffffffffffffffffffffffffffffffff1673ffffffffffffffffffffffffffffffffffffffff1681526020019081526020016000206002015401039050919050565b600260003373ffffffffffffffffffffffffffffffffffffffff1673ffffffffffffffffffffffffffffffffffffffff16815260200190815260200160002060009054906101000a900460ff16158061100c5750600160003373ffffffffffffffffffffffffffffffffffffffff1673ffffffffffffffffffffffffffffffffffffffff16815260200190815260200160002060030160149054906101000a900460ff16155b80156110625750600460008373ffffffffffffffffffffffffffffffffffffffff1673ffffffffffffffffffffffffffffffffffffffff16815260200190815260200160002060009054906101000a900460ff16155b151561106d57600080fd5b6001600260003373ffffffffffffffffffffffffffffffffffffffff1673ffffffffffffffffffffffffffffffffffffffff16815260200190815260200160002060006101000a81548160ff02191690831515021790555034600160003373ffffffffffffffffffffffffffffffffffffffff1673ffffffffffffffffffffffffffffffffffffffff1681526020019081526020016000206000018190555080600160003373ffffffffffffffffffffffffffffffffffffffff1673ffffffffffffffffffffffffffffffffffffffff1681526020019081526020016000206001018190555042600160003373ffffffffffffffffffffffffffffffffffffffff1673ffffffffffffffffffffffffffffffffffffffff1681526020019081526020016000206002018190555081600160003373ffffffffffffffffffffffffffffffffffffffff1673ffffffffffffffffffffffffffffffffffffffff16815260200190815260200160002060030160006101000a81548173ffffffffffffffffffffffffffffffffffffffff021916908373ffffffffffffffffffffffffffffffffffffffff16021790555060018060003373ffffffffffffffffffffffffffffffffffffffff1673ffffffffffffffffffffffffffffffffffffffff16815260200190815260200160002060030160146101000a81548160ff0219169083151502179055506001600260003373ffffffffffffffffffffffffffffffffffffffff1673ffffffffffffffffffffffffffffffffffffffff16815260200190815260200160002060006101000a81548160ff021916908315150217905550600160003373ffffffffffffffffffffffffffffffffffffffff1673ffffffffffffffffffffffffffffffffffffffff168152602001908152602001600020600360008473ffffffffffffffffffffffffffffffffffffffff1673ffffffffffffffffffffffffffffffffffffffff1681526020019081526020016000206000820154816000015560018201548160010155600282015481600201556003820160009054906101000a900473ffffffffffffffffffffffffffffffffffffffff168160030160006101000a81548173ffffffffffffffffffffffffffffffffffffffff021916908373ffffffffffffffffffffffffffffffffffffffff1602179055506003820160149054906101000a900460ff168160030160146101000a81548160ff0219169083151502179055509050506001600460008473ffffffffffffffffffffffffffffffffffffffff1673ffffffffffffffffffffffffffffffffffffffff16815260200190815260200160002060006101000a81548160ff0219169083151502179055505050565b600260003373ffffffffffffffffffffffffffffffffffffffff1673ffffffffffffffffffffffffffffffffffffffff16815260200190815260200160002060009054906101000a900460ff1615156114b457600080fd5b80600160003373ffffffffffffffffffffffffffffffffffffffff1673ffffffffffffffffffffffffffffffffffffffff168152602001908152602001600020600001541015151561150557600080fd5b8173ffffffffffffffffffffffffffffffffffffffff166108fc829081150290604051600060405180830381858888f1935050505015801561154b573d6000803e3d6000fd5b5080600160003373ffffffffffffffffffffffffffffffffffffffff1673ffffffffffffffffffffffffffffffffffffffff1681526020019081526020016000206000015403600160003373ffffffffffffffffffffffffffffffffffffffff1673ffffffffffffffffffffffffffffffffffffffff168152602001908152602001600020600001819055505050565b6000806000806000600260003373ffffffffffffffffffffffffffffffffffffffff1673ffffffffffffffffffffffffffffffffffffffff16815260200190815260200160002060009054906101000a900460ff16151561163b57600080fd5b600160003373ffffffffffffffffffffffffffffffffffffffff1673ffffffffffffffffffffffffffffffffffffffff16815260200190815260200160002090508060000154816001015482600201548360030160009054906101000a900473ffffffffffffffffffffffffffffffffffffffff16945094509450945050909192935600a165627a7a72305820a62baa10630eb30173113826423e6f2e94b0619e776aaa4234fb17b42e6143f60029",
  "source": "pragma solidity ^0.4.17;\n\n/* WILL CREATION SMART CONTRACT */\ncontract WillCreator {\n\taddress myAddress = this;\n    \n\tstruct will{\n\t\tuint value;\n\t\tuint timeToDeath;\n\t\tuint timeLastCheckedIn;\n\t\taddress child;\n\t\tbool isValid;\n\t}\n\t\n\tfunction getBalance() public view returns (uint) {\n\t       return myAddress.balance;\n\t}\n\n\tmapping (address => will) myWill;\n\tmapping (address => bool) doesWillExist;\n\tmapping (address => will) mentionedWill;\n\tmapping (address => bool) isMentioned;\n\t\n\t// fallback: return eth to msg.sender\n\tfunction () public payable {\n\t    revert();\n\t}\n\n\t// input: address the eth will be sent to after owner of will dies\n\t// uint time that the user wishes to be considered dead after no interaction\n\tfunction makeWill(address c, uint time) public payable {\n\t\trequire ( (!doesWillExist[msg.sender] || !myWill[msg.sender].isValid ) && !isMentioned[c]);\n\t\tdoesWillExist[msg.sender] = true;\n\t\tmyWill[msg.sender].value = msg.value;\n\t\tmyWill[msg.sender].timeToDeath = time;\n\t\tmyWill[msg.sender].timeLastCheckedIn = block.timestamp;\n\t\tmyWill[msg.sender].child = c;\n\t\tmyWill[msg.sender].isValid = true;\n\n\t\tdoesWillExist[msg.sender] = true;\n\t\tmentionedWill[c] = myWill[msg.sender];\n\t\tisMentioned[c] = true;\n\t}\n\n\n\tmodifier myWillExists() {\n\t\trequire(doesWillExist[msg.sender]);\n\t\t_;\n\t}\n\n\tfunction checkin() public myWillExists() {\n\t\tmyWill[msg.sender].timeLastCheckedIn = block.timestamp;\t\t\t\n\t}\n\n\tfunction timeToDeath(address a) public view returns (uint) {\n\t\trequire(doesWillExist[a]);\n\t\treturn myWill[a].timeLastCheckedIn + myWill[a].timeToDeath - block.timestamp;\t\n\t}\n\n\t// if child of a parent who has died calls this function, send total eth in the will to them\n\t// if the current time is past the time of last check-in plus the user-set time until death \n\tfunction releaseEth() public {\n\t\trequire (isMentioned[msg.sender] && mentionedWill[msg.sender].timeLastCheckedIn + mentionedWill[msg.sender].timeToDeath < block.timestamp );\n\t\tmsg.sender.transfer(mentionedWill[msg.sender].value);\t\n\t\tisMentioned[msg.sender] = false;\n\t\tmentionedWill[msg.sender].isValid = false;\n\t}\n\n\tfunction doesMyWillExist() public view returns (bool) {\n\t\treturn doesWillExist[msg.sender]; \n\t}\n\n\tfunction getChild() public view myWillExists() returns (address) {\n\t\treturn myWill[msg.sender].child;\n\t}\n\n\tfunction amIChild() public view returns (bool) {\n\t\treturn isMentioned[msg.sender];\n\t}\n\n\t// allows child to change child to another address\n\t// or parent to change the child\n\t// child can now be assigned to another will\n\tfunction changeChild(address a) public {\n\t\trequire (isMentioned[msg.sender] || doesWillExist[msg.sender]);\n\t\tmentionedWill[msg.sender].child = a;\t\n\t\tisMentioned[a] = true;\n\t\tisMentioned[msg.sender] = false;\n\t}\n\n\t// withdraw eth back to original sending account\n\tfunction withdraw(uint a) public myWillExists() {\n\t\ttransferEth(msg.sender, a);\n\t}\n\t\n\t// withdraw all eth back to original sending account\t\n\tfunction withdrawAll() public myWillExists() {\n            \tmsg.sender.transfer(myWill[msg.sender].value);\n            \tmyWill[msg.sender].value = 0;\n\t}\n\n\t// add msg.value to the will value\n\tfunction addToWill() public payable myWillExists() {\n        \tmyWill[msg.sender].value = myWill[msg.sender].value + msg.value;\n    \t}\n    \n    \t// transfer eth from contract to owner-specified address\n\tfunction transferEth(address receiver, uint amount) public myWillExists() {\n\t\trequire (myWill[msg.sender].value >= amount);\n\t   \treceiver.transfer(amount);\n\t    \tmyWill[msg.sender].value = myWill[msg.sender].value - amount;\n\t}\n\n\t// deletes will if it exists\n\t// returns all eth to creating account\n\t// child can now be attached to another will\n\tfunction killWill() public myWillExists() {\n\t\tdoesWillExist[msg.sender] = false;\n\t\tmyWill[msg.sender].isValid = false;\n\t\twithdrawAll();\n\t\tisMentioned[myWill[msg.sender].child] = false;\n\t}\n\n        function getWillInfo() public constant returns (uint, uint, uint, address){\n             require (doesWillExist[msg.sender]);\n             will storage senderWill = myWill[msg.sender];\n             return (senderWill.value, senderWill.timeToDeath, senderWill.timeLastCheckedIn, senderWill.child);\n        }\n}\n",
  "sourcePath": "/home/elizabeth/Documents/lasting-legacy/will-contract/contracts/WillCreator.sol",
  "compiler": {
    "name": "solc",
    "version": "0.4.23+commit.124ca40d.Emscripten.clang"
  },
  "schemaVersion": "2.0.0",
  "updatedAt": "2018-05-08T01:39:34.464Z"
}